:020000040800F2
:1000000000100020AD050008A9050008A90500089A
:1000100000000000000000000000000000000000E0
:10002000000000000000000000000000A90500081A
:100030000000000000000000A905000819060008E3
:10004000A905000800000000A9050008A90500088E
:10005000A9050008A9050008A9050008A9050008C8
:1000600000000000A9050008A9050008A90500086E
:10007000A9050008A9050008A9050008000000005E
:10008000A90500080000000000000000A905000804
:10009000A9050008A9050008A9050008A905000888
:1000A000A9050008A9050008A9050008A905000878
:0400B000A905000896
:1000B4000448054B10B5834203D0044B002B00D0F9
:1000C400984710BD240000202400002000000000F8
:1000D40006480749091A8B10C90FC91810B54910E9
:1000E40003D0044B002B00D0984710BD24000020FF
:1000F400240000200000000010B5074C2378002BDA
:1001040009D1FFF7D5FF054B002B02D0044800E0CE
:1001140000BF0123237010BD240000200000000054
:100124004C060008054B10B5002B03D004490548C4
:1001340000E000BFFFF7CCFF10BDC0460000000088
:10014400280000204C060008214B1A680F218A431E
:100154001A601A680E390A431A601D4B1B689B0704
:10016400FBD51C4B1A6810210A431A601A68093916
:100174008A431A601A6805390A431A60144B5A688C
:10018400EE318A435A605A685A605A6812490A40E2
:100194005A6059688022D2000A435A605A680F494B
:1001A4000A405A605A685A605A680D490A405A60AF
:1001B4005968802212020A435A605A6809490A405F
:1001C4005A605968802252030A435A607047C046F5
:1001D4000010024000200240FFF8FFFFFFC7FFFFAE
:1001E400FF7FFFFFFFFFC3FF054B5A6905490A4024
:1001F4005A615969802292020A435A617047C04683
:1002040000100240FFFFFDFF054B5A6905490A40F3
:100214005A6159698022D2020A435A617047C04622
:1002240000100240FFFFFBFF054B5A6905490A40D5
:100234005A615969802212030A435A617047C046C1
:1002440000100240FFFFF7FF054B5A6905490A40B9
:100254005A615969802252030A435A617047C04661
:1002640000100240FFFFEFFF054B5A6905490A40A1
:100274005A6159698022D2030A435A617047C046C1
:1002840000100240FFFFBFFF70B5002300E0013300
:100294000F2B21DC0A881A41D207F8D504685D00C7
:1002A4000322AA409443046004688E78AE40344329
:1002B4000460446801269E40B44344604468CE7898
:1002C4009E403443446084689443846082680C791B
:1002D400AC4022438260DAE770BD012A01D081621A
:1002E40070478161FCE703690B4201D0012070472C
:1002F4000020FCE710B5002409E0064B6200D15A47
:10030400054BA200D0580122FFF7E7FF0134032C6C
:10031400F3DD10BD740600087C06000810B506491C
:100324009020C005FFF7B0FF04490548FFF7ACFF74
:10033400FFF7E0FF10BDC0460800002000000020C9
:100344000004004870B500252EE00A2000F070F982
:100354001E4B6200D15A1E4BA200D058FFF7C3FFB8
:100364000028F2D01B4BAA0052199B18185D2BE0F1
:100374000134042C17DC154B6200D15A144BA20033
:10038400D058FFF7B0FF0028F2D1143000F050F934
:100394000E4B6200D15A0E4BA200D058FFF7A3FFB8
:1003A4000028E5D1D4E70135032D0CDCFFF7A2FFCB
:1003B400094B6A00D15A094BAA00D0580022FFF712
:1003C4008CFF0024D5E7632070BDC0468C0600086E
:1003D4009806000810000020740600087C06000837
:1003E40070B5040001252A0002409026F60520215C
:1003F4003000FFF772FF62082A4040213000FFF707
:100404006CFFA2082A4080213000FFF766FFE20853
:100414002A4001210948FFF760FF01221021300022
:10042400FFF75BFF012000F003F9002210213000E8
:10043400FFF753FF012000F0FBF870BD00040048F3
:1004440010B504000009FFF7CBFF2000FFF7C8FF39
:1004540010BD10B50400902000220821C005FFF74C
:100464003CFF2000FFF7ECFF10BD000030B585B065
:1004740002A9224B1A6802929A888A806D469A6869
:1004840000929B89AB809024E4052000FFF7FCFEDA
:1004940069461B48FFF7F8FE002208212000FFF7F9
:1004A4001CFF012000F0C4F80320FFF799FF01208E
:1004B40000F0BEF80320FFF793FF012000F0B8F826
:1004C4000320FFF78DFF012000F0B2F80220FFF7B0
:1004D40087FF2820FFF7BDFF012000F0A9F80620C0
:1004E400FFF7B7FF0C20FFF7B4FF0120FFF7B1FFC0
:1004F400012000F09DF805B030BDC0466406000838
:100504000004004810B5002801D04031C9B2802051
:1005140040420843C0B2FFF79CFF10BD10B5040071
:10052400902001220821C005FFF7D7FE2000FFF725
:1005340087FF10BD10B50120FFF78BFF052000F0E9
:1005440077F810BD10B5040002E0FFF7E7FF0134AF
:1005540020780028F9D110BD10B500F055F8FFF748
:1005640043FEFFF751FEFFF75FFEFFF76DFEFFF757
:100574007BFE00F037F8FFF7D1FEFFF777FFFFF7B8
:10058400D9FF00210020FFF7BDFF0548FFF7DAFF80
:10059400FFF7D8FE6328FBD0FFF7C0FFF8E7C0469B
:1005A400AC060008FEE7000010B5094B094A01E05B
:1005B40002CA02C308498B42FAD3084B01E0002265
:1005C40004C3074A9342FAD3FFF7C6FFFEE7C046C7
:1005D40000000020BC0600082400002024000020A5
:1005E40044000020054B00221A60054B1A6005499F
:1005F40059609A6007321A607047C0464000002074
:1006040010E000E07FBB000010B5FFF79DFDFFF791
:10061400E9FF10BD024A1368013313607047C046F6
:1006240040000020014B18687047C046400000207D
:1006340070B50500FFF7F6FF0400FFF7F3FF001B9A
:10064400A842FAD370BD0000F8B5C046F8BC08BC97
:100654009E467047F8B5C046F8BC08BC9E46704735
:10066400F800010002000000010001000200000087
:10067400008001000200040000000048000000485F
:1006840000000048000000488000400020001000E6
:10069400080000000004004800040048000400486A
:1006A400000400480004004868656C6C6F0000009A
:0406B4002901000810
:0406B800FD00000839
:1006BC00F8000000020000000780010102000000A9
:1006CC0031353978293236303A4333372B3D423481
:0406DC00382D282E5F
:04000005080005AD3D
:00000001FF
