:020000040800F2
:1000000000100020390400083504000835040008F9
:1000100000000000000000000000000000000000E0
:10002000000000000000000000000000350400088F
:10003000000000000000000035040008A5040008CE
:1000400035040008000000003504000835040008ED
:10005000350400083504000835040008350400089C
:1000600000000000350400083504000835040008CD
:1000700035040008350400083504000800000000BD
:1000800035040008000000000000000035040008EE
:10009000350400083504000835040008350400085C
:1000A000350400083504000835040008350400084C
:0400B000350400080B
:1000B4000448054B10B5834203D0044B002B00D0F9
:1000C400984710BD00000020000000200000000040
:1000D40006480749091A8B10C90FC91810B54910E9
:1000E40003D0044B002B00D0984710BD0000002023
:1000F400000000200000000010B5074C2378002BFE
:1001040009D1FFF7D5FF054B002B02D0044800E0CE
:1001140000BF0123237010BD000000200000000078
:10012400D8040008054B10B5002B03D0044905483A
:1001340000E000BFFFF7CCFF10BDC0460000000088
:1001440004000020D8040008214B1A680F218A43B8
:100154001A601A680E390A431A601D4B1B689B0704
:10016400FBD51C4B1A6810210A431A601A68093916
:100174008A431A601A6805390A431A60144B5A688C
:10018400EE318A435A605A685A605A6812490A40E2
:100194005A6059688022D2000A435A605A680F494B
:1001A4000A405A605A685A605A680D490A405A60AF
:1001B4005968802212020A435A605A6809490A405F
:1001C4005A605968802252030A435A607047C046F5
:1001D4000010024000200240FFF8FFFFFFC7FFFFAE
:1001E400FF7FFFFFFFFFC3FF054B5A6905490A4024
:1001F4005A615969802292020A435A617047C04683
:1002040000100240FFFFFDFF054B5A6905490A40F3
:100214005A6159698022D2020A435A617047C04622
:1002240000100240FFFFFBFF70B5002300E0013324
:100234000F2B21DC0A881A41D207F8D504685D0027
:100244000322AA409443046004688E78AE40344389
:100254000460446801269E40B44344604468CE78F8
:100264009E403443446084689443846082680C797B
:10027400AC4022438260DAE770BD012A01D081627A
:1002840070478161FCE7000070B5040001252A0075
:1002940002409026F60520213000FFF7EEFF6208A9
:1002A4002A4040213000FFF7E8FFA2082A408021BD
:1002B4003000FFF7E2FFE2082A4001210948FFF776
:1002C400DCFF012210213000FFF7D7FF012000F0EE
:1002D400F5F8002210213000FFF7CFFF012000F0D5
:1002E400EDF870BD0004004810B504000009FFF7E4
:1002F400CBFF2000FFF7C8FF10BD10B5040090200D
:1003040000220821C005FFF7B8FF2000FFF7ECFF2B
:1003140010BD000030B585B002A9224B1A680292C4
:100324009A888A806D469A6800929B89AB80902453
:10033400E4052000FFF778FF69461B48FFF774FFC8
:10034400002208212000FFF798FF012000F0B6F8F2
:100354000320FFF799FF012000F0B0F80320FFF716
:1003640093FF012000F0AAF80320FFF78DFF01207E
:1003740000F0A4F80220FFF787FF2820FFF7BDFF55
:10038400012000F09BF80620FFF7B7FF0C20FFF7D1
:10039400B4FF0120FFF7B1FF012000F08FF805B092
:1003A40030BDC046F00400080004004810B5002821
:1003B40001D04031C9B2802040420843C0B2FFF7A7
:1003C4009CFF10BD10B50400902001220821C00537
:1003D400FFF753FF2000FFF787FF10BD10B5012082
:1003E400FFF78BFF052000F069F810BD10B504007D
:1003F40002E0FFF7E7FF013420780028F9D110BDAF
:1004040010B500F047F8FFF7EFFEFFF7FDFE00F030
:100414002FF8FFF77FFFFFF7E1FF00210020FFF730
:10042400C5FF0248FFF7E2FFFEE7C04600050008EB
:10043400FEE7000010B5094B094A01E002CA02C3F5
:1004440008498B42FAD3084B01E0002204C3074A4F
:100454009342FAD3FFF7D4FFFEE7C0460000002022
:1004640018050008000000200000002020000020E3
:10047400054B00221A60054B1A60054959609A60C1
:1004840007321A607047C0461C00002010E000E0EC
:100494007FBB000010B5FFF757FEFFF7E9FF10BD63
:1004A400024A1368013313607047C0461C000020E1
:1004B400014B18687047C0461C00002070B5050049
:1004C400FFF7F6FF0400FFF7F3FF001BA842FAD37F
:1004D40070BD0000F8B5C046F8BC08BC9E46704725
:0C04E400F8B5C046F8BC08BC9E46704746
:1004F000F8000100020000000100010002000000FD
:1005000048656C6C6F2C20576F726C642100000082
:0405100029010008B5
:04051400FD000008DE
:0400000508000439B2
:00000001FF
